{
  "contractName": "BusesApp",
  "abi": [
    {
      "anonymous": false,
      "inputs": [
        {
          "indexed": false,
          "internalType": "string",
          "name": "nameCampany",
          "type": "string"
        },
        {
          "indexed": false,
          "internalType": "uint256",
          "name": "phoneNumber",
          "type": "uint256"
        },
        {
          "indexed": false,
          "internalType": "string",
          "name": "email",
          "type": "string"
        },
        {
          "indexed": false,
          "internalType": "string",
          "name": "catogrical",
          "type": "string"
        },
        {
          "indexed": false,
          "internalType": "uint256",
          "name": "LicenseNo",
          "type": "uint256"
        },
        {
          "indexed": false,
          "internalType": "uint256",
          "name": "LicenseDate",
          "type": "uint256"
        }
      ],
      "name": "regcompny",
      "type": "event"
    },
    {
      "constant": true,
      "inputs": [
        {
          "internalType": "uint256",
          "name": "",
          "type": "uint256"
        }
      ],
      "name": "User",
      "outputs": [
        {
          "internalType": "address",
          "name": "",
          "type": "address"
        }
      ],
      "payable": false,
      "stateMutability": "view",
      "type": "function"
    },
    {
      "constant": true,
      "inputs": [
        {
          "internalType": "uint256",
          "name": "",
          "type": "uint256"
        }
      ],
      "name": "company",
      "outputs": [
        {
          "internalType": "address",
          "name": "",
          "type": "address"
        }
      ],
      "payable": false,
      "stateMutability": "view",
      "type": "function"
    },
    {
      "constant": true,
      "inputs": [],
      "name": "driver",
      "outputs": [
        {
          "internalType": "address",
          "name": "",
          "type": "address"
        }
      ],
      "payable": false,
      "stateMutability": "view",
      "type": "function"
    },
    {
      "constant": true,
      "inputs": [
        {
          "internalType": "uint256",
          "name": "",
          "type": "uint256"
        }
      ],
      "name": "location",
      "outputs": [
        {
          "internalType": "address",
          "name": "",
          "type": "address"
        }
      ],
      "payable": false,
      "stateMutability": "view",
      "type": "function"
    },
    {
      "constant": true,
      "inputs": [],
      "name": "price",
      "outputs": [
        {
          "internalType": "uint256",
          "name": "",
          "type": "uint256"
        }
      ],
      "payable": false,
      "stateMutability": "view",
      "type": "function"
    },
    {
      "constant": true,
      "inputs": [],
      "name": "seller",
      "outputs": [
        {
          "internalType": "address",
          "name": "",
          "type": "address"
        }
      ],
      "payable": false,
      "stateMutability": "view",
      "type": "function"
    },
    {
      "constant": true,
      "inputs": [
        {
          "internalType": "uint256",
          "name": "",
          "type": "uint256"
        }
      ],
      "name": "trans",
      "outputs": [
        {
          "internalType": "address",
          "name": "",
          "type": "address"
        }
      ],
      "payable": false,
      "stateMutability": "view",
      "type": "function"
    },
    {
      "constant": true,
      "inputs": [],
      "name": "transfersNo",
      "outputs": [
        {
          "internalType": "uint256",
          "name": "",
          "type": "uint256"
        }
      ],
      "payable": false,
      "stateMutability": "view",
      "type": "function"
    },
    {
      "constant": false,
      "inputs": [
        {
          "internalType": "address",
          "name": "_address",
          "type": "address"
        },
        {
          "internalType": "string",
          "name": "_nameCampany",
          "type": "string"
        },
        {
          "internalType": "uint256",
          "name": "_phoneNumber",
          "type": "uint256"
        },
        {
          "internalType": "string",
          "name": "_email",
          "type": "string"
        },
        {
          "internalType": "string",
          "name": "_catogrical",
          "type": "string"
        },
        {
          "internalType": "uint256",
          "name": "_LicenseNo",
          "type": "uint256"
        },
        {
          "internalType": "uint256",
          "name": "_LicenseDate",
          "type": "uint256"
        }
      ],
      "name": "addCompany",
      "outputs": [],
      "payable": false,
      "stateMutability": "nonpayable",
      "type": "function"
    },
    {
      "constant": true,
      "inputs": [
        {
          "internalType": "address",
          "name": "_address",
          "type": "address"
        }
      ],
      "name": "getCompanyInfos",
      "outputs": [
        {
          "internalType": "string",
          "name": "",
          "type": "string"
        },
        {
          "internalType": "uint256",
          "name": "",
          "type": "uint256"
        },
        {
          "internalType": "string",
          "name": "",
          "type": "string"
        },
        {
          "internalType": "string",
          "name": "",
          "type": "string"
        },
        {
          "internalType": "uint256",
          "name": "",
          "type": "uint256"
        }
      ],
      "payable": false,
      "stateMutability": "view",
      "type": "function"
    },
    {
      "constant": false,
      "inputs": [],
      "name": "isEndLicense",
      "outputs": [],
      "payable": false,
      "stateMutability": "nonpayable",
      "type": "function"
    },
    {
      "constant": false,
      "inputs": [
        {
          "internalType": "address",
          "name": "_address",
          "type": "address"
        },
        {
          "internalType": "string",
          "name": "_nameDriver",
          "type": "string"
        },
        {
          "internalType": "uint256",
          "name": "_BusNumber",
          "type": "uint256"
        },
        {
          "internalType": "uint256",
          "name": "_longitude",
          "type": "uint256"
        },
        {
          "internalType": "uint256",
          "name": "_lotitude",
          "type": "uint256"
        },
        {
          "internalType": "string",
          "name": "_BusCatogrical",
          "type": "string"
        },
        {
          "internalType": "uint256",
          "name": "_seatsNo",
          "type": "uint256"
        }
      ],
      "name": "BusNowLoction",
      "outputs": [],
      "payable": false,
      "stateMutability": "nonpayable",
      "type": "function"
    },
    {
      "constant": true,
      "inputs": [
        {
          "internalType": "address",
          "name": "_addressUser",
          "type": "address"
        }
      ],
      "name": "getInfromationToDriver",
      "outputs": [
        {
          "internalType": "uint256",
          "name": "_RiderNumber",
          "type": "uint256"
        },
        {
          "internalType": "string",
          "name": "_locationNow",
          "type": "string"
        },
        {
          "internalType": "string",
          "name": "_locationTo",
          "type": "string"
        },
        {
          "internalType": "string",
          "name": "_catogrcal",
          "type": "string"
        },
        {
          "internalType": "uint256",
          "name": "_timeOfDeparture",
          "type": "uint256"
        }
      ],
      "payable": false,
      "stateMutability": "view",
      "type": "function"
    },
    {
      "constant": false,
      "inputs": [
        {
          "internalType": "address",
          "name": "_address",
          "type": "address"
        },
        {
          "internalType": "string",
          "name": "_name",
          "type": "string"
        },
        {
          "internalType": "string",
          "name": "_userName",
          "type": "string"
        },
        {
          "internalType": "string",
          "name": "_email",
          "type": "string"
        },
        {
          "internalType": "uint256",
          "name": "_phoneNumber",
          "type": "uint256"
        },
        {
          "internalType": "string",
          "name": "password",
          "type": "string"
        },
        {
          "internalType": "string",
          "name": "_gender",
          "type": "string"
        }
      ],
      "name": "addUser",
      "outputs": [],
      "payable": false,
      "stateMutability": "nonpayable",
      "type": "function"
    },
    {
      "constant": true,
      "inputs": [
        {
          "internalType": "address",
          "name": "_address",
          "type": "address"
        }
      ],
      "name": "getInfoUsers",
      "outputs": [
        {
          "internalType": "string",
          "name": "_name",
          "type": "string"
        },
        {
          "internalType": "string",
          "name": "_userName",
          "type": "string"
        },
        {
          "internalType": "string",
          "name": "_email",
          "type": "string"
        },
        {
          "internalType": "uint256",
          "name": "_phoneNumber",
          "type": "uint256"
        },
        {
          "internalType": "string",
          "name": "password",
          "type": "string"
        },
        {
          "internalType": "string",
          "name": "_gender",
          "type": "string"
        }
      ],
      "payable": false,
      "stateMutability": "view",
      "type": "function"
    },
    {
      "constant": true,
      "inputs": [
        {
          "internalType": "address",
          "name": "_address",
          "type": "address"
        }
      ],
      "name": "getBusLocaationToUser",
      "outputs": [
        {
          "internalType": "string",
          "name": "_nameDriver",
          "type": "string"
        },
        {
          "internalType": "uint256",
          "name": "_BusNumber",
          "type": "uint256"
        },
        {
          "internalType": "uint256",
          "name": "_longitude",
          "type": "uint256"
        },
        {
          "internalType": "uint256",
          "name": "_lotitude",
          "type": "uint256"
        },
        {
          "internalType": "string",
          "name": "_BusCatogrical",
          "type": "string"
        },
        {
          "internalType": "uint256",
          "name": "_seatsNo",
          "type": "uint256"
        }
      ],
      "payable": false,
      "stateMutability": "view",
      "type": "function"
    },
    {
      "constant": false,
      "inputs": [
        {
          "internalType": "address",
          "name": "_address",
          "type": "address"
        },
        {
          "internalType": "string",
          "name": "_nameCompany",
          "type": "string"
        },
        {
          "internalType": "uint256",
          "name": "_RiderNumber",
          "type": "uint256"
        },
        {
          "internalType": "string",
          "name": "_locationNow",
          "type": "string"
        },
        {
          "internalType": "string",
          "name": "_locationTo",
          "type": "string"
        },
        {
          "internalType": "string",
          "name": "_catogrcal",
          "type": "string"
        },
        {
          "internalType": "uint256",
          "name": "_timeOfDeparture",
          "type": "uint256"
        }
      ],
      "name": "addInformation",
      "outputs": [],
      "payable": false,
      "stateMutability": "nonpayable",
      "type": "function"
    },
    {
      "constant": false,
      "inputs": [
        {
          "internalType": "address",
          "name": "_driver",
          "type": "address"
        },
        {
          "internalType": "address",
          "name": "_seller",
          "type": "address"
        },
        {
          "internalType": "uint256",
          "name": "_price",
          "type": "uint256"
        }
      ],
      "name": "MultiplyContract",
      "outputs": [],
      "payable": false,
      "stateMutability": "nonpayable",
      "type": "function"
    }
  ],
  "bytecode": "0x608060405234801561001057600080fd5b50612cc6806100206000396000f3fe608060405234801561001057600080fd5b50600436106101165760003560e01c80636ecc5d62116100a2578063c8d572bf11610071578063c8d572bf14610e14578063c9990aa614611088578063d6958ed8146110f6578063e23ddd941461131d578063eacebba31461146257610116565b80636ecc5d62146109fd5780638033709014610a47578063a035b1fe14610d88578063b4d144fc14610da657610116565b80632c8d3d15116100e95780632c8d3d15146105d15780633fbb468a1461077457806348d846ee146107e25780634e2793dc1461098557806366c991391461098f57610116565b806308551a531461011b578063085abb851461016557806324d53d981461018357806328f5dc021461031d575b600080fd5b6101236114d0565b604051808273ffffffffffffffffffffffffffffffffffffffff1673ffffffffffffffffffffffffffffffffffffffff16815260200191505060405180910390f35b61016d6114f6565b6040518082815260200191505060405180910390f35b61031b600480360360e081101561019957600080fd5b81019080803573ffffffffffffffffffffffffffffffffffffffff169060200190929190803590602001906401000000008111156101d657600080fd5b8201836020820111156101e857600080fd5b8035906020019184600183028401116401000000008311171561020a57600080fd5b91908080601f016020809104026020016040519081016040528093929190818152602001838380828437600081840152601f19601f8201169050808301925050505050505091929192908035906020019092919080359060200190929190803590602001909291908035906020019064010000000081111561028b57600080fd5b82018360208201111561029d57600080fd5b803590602001918460018302840111640100000000831117156102bf57600080fd5b91908080601f016020809104026020016040519081016040528093929190818152602001838380828437600081840152601f19601f820116905080830192505050505050509192919290803590602001909291905050506114fc565b005b6105cf600480360360e081101561033357600080fd5b81019080803573ffffffffffffffffffffffffffffffffffffffff1690602001909291908035906020019064010000000081111561037057600080fd5b82018360208201111561038257600080fd5b803590602001918460018302840111640100000000831117156103a457600080fd5b91908080601f016020809104026020016040519081016040528093929190818152602001838380828437600081840152601f19601f820116905080830192505050505050509192919290803590602001909291908035906020019064010000000081111561041157600080fd5b82018360208201111561042357600080fd5b8035906020019184600183028401116401000000008311171561044557600080fd5b91908080601f016020809104026020016040519081016040528093929190818152602001838380828437600081840152601f19601f820116905080830192505050505050509192919290803590602001906401000000008111156104a857600080fd5b8201836020820111156104ba57600080fd5b803590602001918460018302840111640100000000831117156104dc57600080fd5b91908080601f016020809104026020016040519081016040528093929190818152602001838380828437600081840152601f19601f8201169050808301925050505050505091929192908035906020019064010000000081111561053f57600080fd5b82018360208201111561055157600080fd5b8035906020019184600183028401116401000000008311171561057357600080fd5b91908080601f016020809104026020016040519081016040528093929190818152602001838380828437600081840152601f19601f8201169050808301925050505050505091929192908035906020019092919050505061163c565b005b610613600480360360208110156105e757600080fd5b81019080803573ffffffffffffffffffffffffffffffffffffffff1690602001909291905050506117a2565b60405180868152602001806020018060200180602001858152602001848103845288818151815260200191508051906020019080838360005b8381101561066757808201518184015260208101905061064c565b50505050905090810190601f1680156106945780820380516001836020036101000a031916815260200191505b50848103835287818151815260200191508051906020019080838360005b838110156106cd5780820151818401526020810190506106b2565b50505050905090810190601f1680156106fa5780820380516001836020036101000a031916815260200191505b50848103825286818151815260200191508051906020019080838360005b83811015610733578082015181840152602081019050610718565b50505050905090810190601f1680156107605780820380516001836020036101000a031916815260200191505b509850505050505050505060405180910390f35b6107a06004803603602081101561078a57600080fd5b8101908080359060200190929190505050611ae4565b604051808273ffffffffffffffffffffffffffffffffffffffff1673ffffffffffffffffffffffffffffffffffffffff16815260200191505060405180910390f35b610824600480360360208110156107f857600080fd5b81019080803573ffffffffffffffffffffffffffffffffffffffff169060200190929190505050611b20565b60405180806020018681526020018060200180602001858152602001848103845289818151815260200191508051906020019080838360005b8381101561087857808201518184015260208101905061085d565b50505050905090810190601f1680156108a55780820380516001836020036101000a031916815260200191505b50848103835287818151815260200191508051906020019080838360005b838110156108de5780820151818401526020810190506108c3565b50505050905090810190601f16801561090b5780820380516001836020036101000a031916815260200191505b50848103825286818151815260200191508051906020019080838360005b83811015610944578082015181840152602081019050610929565b50505050905090810190601f1680156109715780820380516001836020036101000a031916815260200191505b509850505050505050505060405180910390f35b61098d611e73565b005b6109bb600480360360208110156109a557600080fd5b8101908080359060200190929190505050611e75565b604051808273ffffffffffffffffffffffffffffffffffffffff1673ffffffffffffffffffffffffffffffffffffffff16815260200191505060405180910390f35b610a05611eb1565b604051808273ffffffffffffffffffffffffffffffffffffffff1673ffffffffffffffffffffffffffffffffffffffff16815260200191505060405180910390f35b610d86600480360360e0811015610a5d57600080fd5b81019080803573ffffffffffffffffffffffffffffffffffffffff16906020019092919080359060200190640100000000811115610a9a57600080fd5b820183602082011115610aac57600080fd5b80359060200191846001830284011164010000000083111715610ace57600080fd5b91908080601f016020809104026020016040519081016040528093929190818152602001838380828437600081840152601f19601f82011690508083019250505050505050919291929080359060200190640100000000811115610b3157600080fd5b820183602082011115610b4357600080fd5b80359060200191846001830284011164010000000083111715610b6557600080fd5b91908080601f016020809104026020016040519081016040528093929190818152602001838380828437600081840152601f19601f82011690508083019250505050505050919291929080359060200190640100000000811115610bc857600080fd5b820183602082011115610bda57600080fd5b80359060200191846001830284011164010000000083111715610bfc57600080fd5b91908080601f016020809104026020016040519081016040528093929190818152602001838380828437600081840152601f19601f8201169050808301925050505050505091929192908035906020019092919080359060200190640100000000811115610c6957600080fd5b820183602082011115610c7b57600080fd5b80359060200191846001830284011164010000000083111715610c9d57600080fd5b91908080601f016020809104026020016040519081016040528093929190818152602001838380828437600081840152601f19601f82011690508083019250505050505050919291929080359060200190640100000000811115610d0057600080fd5b820183602082011115610d1257600080fd5b80359060200191846001830284011164010000000083111715610d3457600080fd5b91908080601f016020809104026020016040519081016040528093929190818152602001838380828437600081840152601f19601f820116905080830192505050505050509192919290505050611ed7565b005b610d90612050565b6040518082815260200191505060405180910390f35b610e1260048036036060811015610dbc57600080fd5b81019080803573ffffffffffffffffffffffffffffffffffffffff169060200190929190803573ffffffffffffffffffffffffffffffffffffffff16906020019092919080359060200190929190505050612056565b005b610e5660048036036020811015610e2a57600080fd5b81019080803573ffffffffffffffffffffffffffffffffffffffff1690602001909291905050506120e4565b60405180806020018060200180602001878152602001806020018060200186810386528c818151815260200191508051906020019080838360005b83811015610eac578082015181840152602081019050610e91565b50505050905090810190601f168015610ed95780820380516001836020036101000a031916815260200191505b5086810385528b818151815260200191508051906020019080838360005b83811015610f12578082015181840152602081019050610ef7565b50505050905090810190601f168015610f3f5780820380516001836020036101000a031916815260200191505b5086810384528a818151815260200191508051906020019080838360005b83811015610f78578082015181840152602081019050610f5d565b50505050905090810190601f168015610fa55780820380516001836020036101000a031916815260200191505b50868103835288818151815260200191508051906020019080838360005b83811015610fde578082015181840152602081019050610fc3565b50505050905090810190601f16801561100b5780820380516001836020036101000a031916815260200191505b50868103825287818151815260200191508051906020019080838360005b83811015611044578082015181840152602081019050611029565b50505050905090810190601f1680156110715780820380516001836020036101000a031916815260200191505b509b50505050505050505050505060405180910390f35b6110b46004803603602081101561109e57600080fd5b810190808035906020019092919050505061259f565b604051808273ffffffffffffffffffffffffffffffffffffffff1673ffffffffffffffffffffffffffffffffffffffff16815260200191505060405180910390f35b61131b600480360360e081101561110c57600080fd5b81019080803573ffffffffffffffffffffffffffffffffffffffff1690602001909291908035906020019064010000000081111561114957600080fd5b82018360208201111561115b57600080fd5b8035906020019184600183028401116401000000008311171561117d57600080fd5b91908080601f016020809104026020016040519081016040528093929190818152602001838380828437600081840152601f19601f82011690508083019250505050505050919291929080359060200190929190803590602001906401000000008111156111ea57600080fd5b8201836020820111156111fc57600080fd5b8035906020019184600183028401116401000000008311171561121e57600080fd5b91908080601f016020809104026020016040519081016040528093929190818152602001838380828437600081840152601f19601f8201169050808301925050505050505091929192908035906020019064010000000081111561128157600080fd5b82018360208201111561129357600080fd5b803590602001918460018302840111640100000000831117156112b557600080fd5b91908080601f016020809104026020016040519081016040528093929190818152602001838380828437600081840152601f19601f82011690508083019250505050505050919291929080359060200190929190803590602001909291905050506125db565b005b61135f6004803603602081101561133357600080fd5b81019080803573ffffffffffffffffffffffffffffffffffffffff1690602001909291905050506128bc565b604051808060200187815260200186815260200185815260200180602001848152602001838103835289818151815260200191508051906020019080838360005b838110156113bb5780820151818401526020810190506113a0565b50505050905090810190601f1680156113e85780820380516001836020036101000a031916815260200191505b50838103825285818151815260200191508051906020019080838360005b83811015611421578082015181840152602081019050611406565b50505050905090810190601f16801561144e5780820380516001836020036101000a031916815260200191505b509850505050505050505060405180910390f35b61148e6004803603602081101561147857600080fd5b8101908080359060200190929190505050612bb0565b604051808273ffffffffffffffffffffffffffffffffffffffff1673ffffffffffffffffffffffffffffffffffffffff16815260200191505060405180910390f35b600a60009054906101000a900473ffffffffffffffffffffffffffffffffffffffff1681565b60065481565b6040518060c0016040528087815260200186815260200185815260200184815260200183815260200182815250600360008973ffffffffffffffffffffffffffffffffffffffff1673ffffffffffffffffffffffffffffffffffffffff1681526020019081526020016000206000820151816000019080519060200190611584929190612bec565b5060208201518160010155604082015181600201556060820151816003015560808201518160040190805190602001906115bf929190612bec565b5060a0820151816005015590505060028790806001815401808255809150509060018203906000526020600020016000909192909190916101000a81548173ffffffffffffffffffffffffffffffffffffffff021916908373ffffffffffffffffffffffffffffffffffffffff1602179055505050505050505050565b6040518060c0016040528087815260200186815260200185815260200184815260200183815260200182815250600860008973ffffffffffffffffffffffffffffffffffffffff1673ffffffffffffffffffffffffffffffffffffffff16815260200190815260200160002060008201518160000190805190602001906116c4929190612bec565b506020820151816001015560408201518160020190805190602001906116eb929190612bec565b506060820151816003019080519060200190611708929190612bec565b506080820151816004019080519060200190611725929190612bec565b5060a0820151816005015590505060078790806001815401808255809150509060018203906000526020600020016000909192909190916101000a81548173ffffffffffffffffffffffffffffffffffffffff021916908373ffffffffffffffffffffffffffffffffffffffff1602179055505050505050505050565b600060608060606000600860008773ffffffffffffffffffffffffffffffffffffffff1673ffffffffffffffffffffffffffffffffffffffff168152602001908152602001600020600101549450600860008773ffffffffffffffffffffffffffffffffffffffff1673ffffffffffffffffffffffffffffffffffffffff1681526020019081526020016000206002018054600181600116156101000203166002900480601f0160208091040260200160405190810160405280929190818152602001828054600181600116156101000203166002900480156118c65780601f1061189b576101008083540402835291602001916118c6565b820191906000526020600020905b8154815290600101906020018083116118a957829003601f168201915b50505050509350600860008773ffffffffffffffffffffffffffffffffffffffff1673ffffffffffffffffffffffffffffffffffffffff1681526020019081526020016000206003018054600181600116156101000203166002900480601f0160208091040260200160405190810160405280929190818152602001828054600181600116156101000203166002900480156119a35780601f10611978576101008083540402835291602001916119a3565b820191906000526020600020905b81548152906001019060200180831161198657829003601f168201915b50505050509250600860008773ffffffffffffffffffffffffffffffffffffffff1673ffffffffffffffffffffffffffffffffffffffff1681526020019081526020016000206004018054600181600116156101000203166002900480601f016020809104026020016040519081016040528092919081815260200182805460018160011615610100020316600290048015611a805780601f10611a5557610100808354040283529160200191611a80565b820191906000526020600020905b815481529060010190602001808311611a6357829003601f168201915b50505050509150600860008773ffffffffffffffffffffffffffffffffffffffff1673ffffffffffffffffffffffffffffffffffffffff16815260200190815260200160002060050154905084848484849450945094509450945091939590929450565b60048181548110611af157fe5b906000526020600020016000915054906101000a900473ffffffffffffffffffffffffffffffffffffffff1681565b60606000606080600080600160008873ffffffffffffffffffffffffffffffffffffffff1673ffffffffffffffffffffffffffffffffffffffff16815260200190815260200160002060000190506000600160008973ffffffffffffffffffffffffffffffffffffffff1673ffffffffffffffffffffffffffffffffffffffff1681526020019081526020016000206001015490506060600160008a73ffffffffffffffffffffffffffffffffffffffff1673ffffffffffffffffffffffffffffffffffffffff1681526020019081526020016000206002018054600181600116156101000203166002900480601f016020809104026020016040519081016040528092919081815260200182805460018160011615610100020316600290048015611c8d5780601f10611c6257610100808354040283529160200191611c8d565b820191906000526020600020905b815481529060010190602001808311611c7057829003601f168201915b505050505090506060600160008b73ffffffffffffffffffffffffffffffffffffffff1673ffffffffffffffffffffffffffffffffffffffff1681526020019081526020016000206003018054600181600116156101000203166002900480601f016020809104026020016040519081016040528092919081815260200182805460018160011615610100020316600290048015611d6c5780601f10611d4157610100808354040283529160200191611d6c565b820191906000526020600020905b815481529060010190602001808311611d4f57829003601f168201915b505050505090506000600160008c73ffffffffffffffffffffffffffffffffffffffff1673ffffffffffffffffffffffffffffffffffffffff1681526020019081526020016000206005015490508484848484848054600181600116156101000203166002900480601f016020809104026020016040519081016040528092919081815260200182805460018160011615610100020316600290048015611e545780601f10611e2957610100808354040283529160200191611e54565b820191906000526020600020905b815481529060010190602001808311611e3757829003601f168201915b5050505050945099509950995099509950505050505091939590929450565b565b60078181548110611e8257fe5b906000526020600020016000915054906101000a900473ffffffffffffffffffffffffffffffffffffffff1681565b600960009054906101000a900473ffffffffffffffffffffffffffffffffffffffff1681565b6040518060c0016040528087815260200186815260200185815260200184815260200183815260200182815250600560008973ffffffffffffffffffffffffffffffffffffffff1673ffffffffffffffffffffffffffffffffffffffff1681526020019081526020016000206000820151816000019080519060200190611f5f929190612bec565b506020820151816001019080519060200190611f7c929190612bec565b506040820151816002019080519060200190611f99929190612bec565b50606082015181600301556080820151816004019080519060200190611fc0929190612bec565b5060a0820151816005019080519060200190611fdd929190612bec565b5090505060048790806001815401808255809150509060018203906000526020600020016000909192909190916101000a81548173ffffffffffffffffffffffffffffffffffffffff021916908373ffffffffffffffffffffffffffffffffffffffff1602179055505050505050505050565b600b5481565b82600960006101000a81548173ffffffffffffffffffffffffffffffffffffffff021916908373ffffffffffffffffffffffffffffffffffffffff16021790555081600a60006101000a81548173ffffffffffffffffffffffffffffffffffffffff021916908373ffffffffffffffffffffffffffffffffffffffff16021790555080600b81905550505050565b60608060606000606080600560008873ffffffffffffffffffffffffffffffffffffffff1673ffffffffffffffffffffffffffffffffffffffff1681526020019081526020016000206000018054600181600116156101000203166002900480601f0160208091040260200160405190810160405280929190818152602001828054600181600116156101000203166002900480156121c45780601f10612199576101008083540402835291602001916121c4565b820191906000526020600020905b8154815290600101906020018083116121a757829003601f168201915b50505050509550600560008873ffffffffffffffffffffffffffffffffffffffff1673ffffffffffffffffffffffffffffffffffffffff1681526020019081526020016000206001018054600181600116156101000203166002900480601f0160208091040260200160405190810160405280929190818152602001828054600181600116156101000203166002900480156122a15780601f10612276576101008083540402835291602001916122a1565b820191906000526020600020905b81548152906001019060200180831161228457829003601f168201915b50505050509450600560008873ffffffffffffffffffffffffffffffffffffffff1673ffffffffffffffffffffffffffffffffffffffff1681526020019081526020016000206002018054600181600116156101000203166002900480601f01602080910402602001604051908101604052809291908181526020018280546001816001161561010002031660029004801561237e5780601f106123535761010080835404028352916020019161237e565b820191906000526020600020905b81548152906001019060200180831161236157829003601f168201915b50505050509350600560008873ffffffffffffffffffffffffffffffffffffffff1673ffffffffffffffffffffffffffffffffffffffff168152602001908152602001600020600301549250600560008873ffffffffffffffffffffffffffffffffffffffff1673ffffffffffffffffffffffffffffffffffffffff1681526020019081526020016000206004018054600181600116156101000203166002900480601f0160208091040260200160405190810160405280929190818152602001828054600181600116156101000203166002900480156124a05780601f10612475576101008083540402835291602001916124a0565b820191906000526020600020905b81548152906001019060200180831161248357829003601f168201915b50505050509150600560008873ffffffffffffffffffffffffffffffffffffffff1673ffffffffffffffffffffffffffffffffffffffff1681526020019081526020016000206005018054600181600116156101000203166002900480601f01602080910402602001604051908101604052809291908181526020018280546001816001161561010002031660029004801561257d5780601f106125525761010080835404028352916020019161257d565b820191906000526020600020905b81548152906001019060200180831161256057829003601f168201915b5050505050905085858585858595509550955095509550955091939550919395565b600281815481106125ac57fe5b906000526020600020016000915054906101000a900473ffffffffffffffffffffffffffffffffffffffff1681565b6040518060c0016040528087815260200186815260200185815260200184815260200183815260200182815250600160008973ffffffffffffffffffffffffffffffffffffffff1673ffffffffffffffffffffffffffffffffffffffff1681526020019081526020016000206000820151816000019080519060200190612663929190612bec565b5060208201518160010155604082015181600201908051906020019061268a929190612bec565b5060608201518160030190805190602001906126a7929190612bec565b506080820151816004015560a0820151816005015590505060008790806001815401808255809150509060018203906000526020600020016000909192909190916101000a81548173ffffffffffffffffffffffffffffffffffffffff021916908373ffffffffffffffffffffffffffffffffffffffff160217905550507f936df83889e426b87eb55a90726075470ccb4856c8bd9ce239b46c83202384e88686868686866040518080602001878152602001806020018060200186815260200185815260200184810384528a818151815260200191508051906020019080838360005b838110156127a657808201518184015260208101905061278b565b50505050905090810190601f1680156127d35780820380516001836020036101000a031916815260200191505b50848103835288818151815260200191508051906020019080838360005b8381101561280c5780820151818401526020810190506127f1565b50505050905090810190601f1680156128395780820380516001836020036101000a031916815260200191505b50848103825287818151815260200191508051906020019080838360005b83811015612872578082015181840152602081019050612857565b50505050905090810190601f16801561289f5780820380516001836020036101000a031916815260200191505b50995050505050505050505060405180910390a150505050505050565b6060600080600060606000600360008873ffffffffffffffffffffffffffffffffffffffff1673ffffffffffffffffffffffffffffffffffffffff1681526020019081526020016000206000018054600181600116156101000203166002900480601f01602080910402602001604051908101604052809291908181526020018280546001816001161561010002031660029004801561299d5780601f106129725761010080835404028352916020019161299d565b820191906000526020600020905b81548152906001019060200180831161298057829003601f168201915b50505050509550600360008873ffffffffffffffffffffffffffffffffffffffff1673ffffffffffffffffffffffffffffffffffffffff168152602001908152602001600020600101549450600360008873ffffffffffffffffffffffffffffffffffffffff1673ffffffffffffffffffffffffffffffffffffffff168152602001908152602001600020600301549350600360008873ffffffffffffffffffffffffffffffffffffffff1673ffffffffffffffffffffffffffffffffffffffff168152602001908152602001600020600201549250600360008873ffffffffffffffffffffffffffffffffffffffff1673ffffffffffffffffffffffffffffffffffffffff1681526020019081526020016000206004018054600181600116156101000203166002900480601f016020809104026020016040519081016040528092919081815260200182805460018160011615610100020316600290048015612b495780601f10612b1e57610100808354040283529160200191612b49565b820191906000526020600020905b815481529060010190602001808311612b2c57829003601f168201915b50505050509150600360008873ffffffffffffffffffffffffffffffffffffffff1673ffffffffffffffffffffffffffffffffffffffff16815260200190815260200160002060050154905085858585858595509550955095509550955091939550919395565b60008181548110612bbd57fe5b906000526020600020016000915054906101000a900473ffffffffffffffffffffffffffffffffffffffff1681565b828054600181600116156101000203166002900490600052602060002090601f016020900481019282601f10612c2d57805160ff1916838001178555612c5b565b82800160010185558215612c5b579182015b82811115612c5a578251825591602001919060010190612c3f565b5b509050612c689190612c6c565b5090565b612c8e91905b80821115612c8a576000816000905550600101612c72565b5090565b9056fea265627a7a72315820d082fed5ce4ef7bd01605983f67b5f21439aa344e45ffb0948fd3e65be2b058464736f6c63430005100032",
  "source": "// SPDX-License-Identifier: MIT\npragma solidity >=0.4.0 <0.9.0;\n\n\ncontract BusesApp {\n    // ---------register company----------------------------\n    struct Company {\n        string nameCampany;\n        uint256 phoneNumber;\n        string email;\n        string catogrical;\n        uint256 LicenseNo;\n        uint256 LicenseDate;\n    }\n    address[] public company;\n    mapping(address => Company) companies;\n    event regcompny(\n        string nameCampany,\n        uint256 phoneNumber,\n        string email,\n        string catogrical,\n        uint256 LicenseNo,\n        uint256 LicenseDate\n    );\n\n    function addCompany(\n        address _address,\n        string memory _nameCampany,\n        uint256 _phoneNumber,\n        string memory _email,\n        string memory _catogrical,\n        uint256 _LicenseNo,\n        uint256 _LicenseDate\n    ) public {\n        companies[_address] = (\n            Company(\n                _nameCampany,\n                _phoneNumber,\n                _email,\n                _catogrical,\n                _LicenseNo,\n                _LicenseDate\n            )\n        );\n        company.push(_address);\n        emit regcompny(\n            _nameCampany,\n            _phoneNumber,\n            _email,\n            _catogrical,\n            _LicenseNo,\n            _LicenseDate\n        );\n    }\n\n    function getCompanyInfos(address _address)\n        public\n        view\n        returns (\n            string memory,\n            uint256,\n            string memory,\n            string memory,\n            uint256\n        )\n    {\n        string storage _nameCampany = companies[_address].nameCampany;\n        uint256 _phone = companies[_address].phoneNumber;\n        string memory _email = companies[_address].email;\n        string memory _catogrical = companies[_address].catogrical;\n        uint256 _LicenseDate = companies[_address].LicenseDate;\n\n        return (_nameCampany, _phone, _email, _catogrical, _LicenseDate);\n    }\n\n    // --------- here get alert for License to end ---------\n    function isEndLicense() public {}\n\n    // --------- Here The current Bus locations -----------------------------------\n    struct BusesLocation {\n        string nameDriver;\n        uint256 BusNumber;\n        uint256 lotitude;\n        uint256 longitude;\n        string BusCatogrical;\n        uint256 seatsNo;\n    }\n\n    address[] public location;\n    mapping(address => BusesLocation) busesLocations;\n\n    function BusNowLoction(\n        address _address,\n        string memory _nameDriver,\n        uint256 _BusNumber,\n        uint256 _longitude,\n        uint256 _lotitude,\n        string memory _BusCatogrical,\n        uint256 _seatsNo\n    ) public {\n        busesLocations[_address] = (\n            BusesLocation(\n                _nameDriver,\n                _BusNumber,\n                _longitude,\n                _lotitude,\n                _BusCatogrical,\n                _seatsNo\n            )\n        );\n        location.push(_address);\n    }\n\n    function getInfromationToDriver(address _addressUser)\n        public\n        view\n        returns (\n            uint256 _RiderNumber,\n            string memory _locationNow,\n            string memory _locationTo,\n            string memory _catogrcal,\n            uint256 _timeOfDeparture\n        )\n    {\n        _RiderNumber = info[_addressUser].RiderNumber;\n        _locationNow = info[_addressUser].locationNow;\n        _locationTo = info[_addressUser].locationTo;\n        _catogrcal = info[_addressUser].catogrical;\n        _timeOfDeparture = info[_addressUser].timeOfDeparture;\n\n        return (\n            _RiderNumber,\n            _locationNow,\n            _locationTo,\n            _catogrcal,\n            _timeOfDeparture\n        );\n    }\n\n    //--------------------------- here for register users----------------------\n    struct user1 {\n        string name;\n        string userName;\n        string email;\n        uint256 phoneNumber;\n        string password;\n        string gender;\n    }\n\n    address[] public User;\n    mapping(address => user1) users;\n\n    function addUser(\n        address _address,\n        string memory _name,\n        string memory _userName,\n        string memory _email,\n        uint256 _phoneNumber,\n        string memory password,\n        string memory _gender\n    ) public {\n        users[_address] = (\n            user1(_name, _userName, _email, _phoneNumber, password, _gender)\n        );\n        User.push(_address);\n    }\n\n    function getInfoUsers(address _address)\n        public\n        view\n        returns (\n            string memory _name,\n            string memory _userName,\n            string memory _email,\n            uint256 _phoneNumber,\n            string memory password,\n            string memory _gender\n        )\n    {\n        _name = users[_address].name;\n        _userName = users[_address].userName;\n        _email = users[_address].email;\n        _phoneNumber = users[_address].phoneNumber;\n        password = users[_address].password;\n        _gender = users[_address].gender;\n        return (_name, _userName, _email, _phoneNumber, password, _gender);\n    }\n\n    // ----------------------------------------------------------------------\n\n    // here get buses location to User\n\n    function getBusLocaationToUser(address _address)\n        public\n        view\n        returns (\n            string memory _nameDriver,\n            uint256 _BusNumber,\n            uint256 _longitude,\n            uint256 _lotitude,\n            string memory _BusCatogrical,\n            uint256 _seatsNo\n        )\n    {\n        _nameDriver = busesLocations[_address].nameDriver;\n        _BusNumber = busesLocations[_address].BusNumber;\n        _longitude = busesLocations[_address].longitude;\n        _lotitude = busesLocations[_address].lotitude;\n        _BusCatogrical = busesLocations[_address].BusCatogrical;\n        _seatsNo = busesLocations[_address].seatsNo;\n        return (\n            _nameDriver,\n            _BusNumber,\n            _longitude,\n            _lotitude,\n            _BusCatogrical,\n            _seatsNo\n        );\n    }\n\n    //  Enter Information for Transfers and getting Infrormation Transfers like(time,destance,amount) from driverInfo contract-----------------------------------------\n\n    uint256 public transfersNo;\n\n    struct UserTransfers {\n        string nameCompany;\n        uint256 RiderNumber;\n        string locationNow;\n        string locationTo;\n        string catogrical;\n        uint256 timeOfDeparture;\n    }\n\n    address[] public trans;\n    mapping(address => UserTransfers) info;\n\n    function addInformation(\n        address _address,\n        string memory _nameCompany,\n        uint256 _RiderNumber,\n        string memory _locationNow,\n        string memory _locationTo,\n        string memory _catogrcal,\n        uint256 _timeOfDeparture\n    ) public {\n        info[_address] = (\n            UserTransfers(\n                _nameCompany,\n                _RiderNumber,\n                _locationNow,\n                _locationTo,\n                _catogrcal,\n                _timeOfDeparture\n            )\n        );\n        trans.push(_address);\n    }\n\n    //payment\n    address public driver;\n    address public seller;\n    uint256 public price;\n\n    function MultiplyContract(\n        address _driver,\n        address _seller,\n        uint256 _price\n    ) public {\n        driver = _driver;\n        seller = _seller;\n        price = _price;\n    }\n    //  function Execution (address _seller) public {\n    //     _seller.send(price);\n    // }\n}\n\n// contract EtherTransferTo {\n//     function () external payable {\n//     }\n\n//     function getBalance() public returns (uint) {\n//         return address(this).balance;\n//     }\n// }\n\n// contract EtherTransferFrom {\n\n//     EtherTransferTo private _instance;\n\n//     constructor() public {\n//         // _instance = EtherTransferTo(address(this));\n//         _instance = new EtherTransferTo();\n//     }\n\n//     function getBalance() public returns (uint) {\n//         return address(this).balance;\n//     }\n\n//     function getBalanceOfInstance() public returns (uint) {\n//         //return address(_instance).balance;\n//         return _instance.getBalance();\n//     }\n\n//     function () external payable {\n//         //msg.sender.send(msg.value);\n//         address(_instance).send(msg.value);\n//     }\n// }\n",
  "sourcePath": "C:\\Users\\esam bn\\Desktop\\drizzle-vue\\contracts\\Buses.sol",
  "compiler": {
    "name": "solc",
    "version": "0.5.16+commit.9c3226ce.Emscripten.clang"
  },
  "schemaVersion": "3.4.2",
  "updatedAt": "2021-08-21T19:36:38.748Z",
  "devdoc": {
    "methods": {}
  },
  "userdoc": {
    "methods": {}
  }
}