{
  "contractName": "License",
  "abi": [
    {
      "constant": true,
      "inputs": [
        {
          "internalType": "uint256",
          "name": "",
          "type": "uint256"
        }
      ],
      "name": "company",
      "outputs": [
        {
          "internalType": "address",
          "name": "",
          "type": "address"
        }
      ],
      "payable": false,
      "stateMutability": "view",
      "type": "function"
    },
    {
      "constant": true,
      "inputs": [
        {
          "internalType": "uint256",
          "name": "",
          "type": "uint256"
        }
      ],
      "name": "driver",
      "outputs": [
        {
          "internalType": "address",
          "name": "",
          "type": "address"
        }
      ],
      "payable": false,
      "stateMutability": "view",
      "type": "function"
    },
    {
      "constant": true,
      "inputs": [],
      "name": "driverAddr",
      "outputs": [
        {
          "internalType": "address",
          "name": "",
          "type": "address"
        }
      ],
      "payable": false,
      "stateMutability": "view",
      "type": "function"
    },
    {
      "constant": false,
      "inputs": [
        {
          "internalType": "address",
          "name": "_address",
          "type": "address"
        },
        {
          "internalType": "string",
          "name": "_nameCampany",
          "type": "string"
        },
        {
          "internalType": "uint256",
          "name": "_phoneNumber",
          "type": "uint256"
        },
        {
          "internalType": "string",
          "name": "_email",
          "type": "string"
        },
        {
          "internalType": "string",
          "name": "_catogrical",
          "type": "string"
        },
        {
          "internalType": "uint256",
          "name": "_LicenseNo",
          "type": "uint256"
        },
        {
          "internalType": "string",
          "name": "_LicenseDate",
          "type": "string"
        }
      ],
      "name": "addCompany",
      "outputs": [],
      "payable": false,
      "stateMutability": "nonpayable",
      "type": "function"
    },
    {
      "constant": true,
      "inputs": [
        {
          "internalType": "address",
          "name": "_address",
          "type": "address"
        }
      ],
      "name": "getCompanyInfos",
      "outputs": [
        {
          "internalType": "string",
          "name": "",
          "type": "string"
        },
        {
          "internalType": "uint256",
          "name": "",
          "type": "uint256"
        },
        {
          "internalType": "string",
          "name": "",
          "type": "string"
        },
        {
          "internalType": "string",
          "name": "",
          "type": "string"
        },
        {
          "internalType": "uint256",
          "name": "",
          "type": "uint256"
        },
        {
          "internalType": "string",
          "name": "",
          "type": "string"
        }
      ],
      "payable": false,
      "stateMutability": "view",
      "type": "function"
    },
    {
      "constant": false,
      "inputs": [
        {
          "internalType": "address",
          "name": "_address",
          "type": "address"
        },
        {
          "internalType": "string",
          "name": "_nameDriver",
          "type": "string"
        },
        {
          "internalType": "string",
          "name": "_email",
          "type": "string"
        },
        {
          "internalType": "string",
          "name": "_catogrical",
          "type": "string"
        },
        {
          "internalType": "uint256",
          "name": "_DrivingLinceseNo",
          "type": "uint256"
        },
        {
          "internalType": "string",
          "name": "_DrivingLinceseDate",
          "type": "string"
        },
        {
          "internalType": "uint256",
          "name": "_BusModel",
          "type": "uint256"
        }
      ],
      "name": "addDriver",
      "outputs": [],
      "payable": false,
      "stateMutability": "nonpayable",
      "type": "function"
    },
    {
      "constant": true,
      "inputs": [
        {
          "internalType": "address",
          "name": "_address",
          "type": "address"
        }
      ],
      "name": "getDriverInfo",
      "outputs": [
        {
          "internalType": "string",
          "name": "",
          "type": "string"
        },
        {
          "internalType": "string",
          "name": "",
          "type": "string"
        },
        {
          "internalType": "string",
          "name": "",
          "type": "string"
        },
        {
          "internalType": "uint256",
          "name": "",
          "type": "uint256"
        },
        {
          "internalType": "string",
          "name": "",
          "type": "string"
        },
        {
          "internalType": "uint256",
          "name": "",
          "type": "uint256"
        }
      ],
      "payable": false,
      "stateMutability": "view",
      "type": "function"
    }
  ],
  "bytecode": "0x608060405234801561001057600080fd5b506117e0806100206000396000f3fe608060405234801561001057600080fd5b506004361061007c5760003560e01c80633e0714ee1161005b5780633e0714ee1461058e57806348d846ee14610842578063de6565e314610a51578063eacebba314610abf5761007c565b80625b167214610081578063031f0fae146100cb578063219a7f271461037f575b600080fd5b610089610b2d565b604051808273ffffffffffffffffffffffffffffffffffffffff1673ffffffffffffffffffffffffffffffffffffffff16815260200191505060405180910390f35b61037d600480360360e08110156100e157600080fd5b81019080803573ffffffffffffffffffffffffffffffffffffffff1690602001909291908035906020019064010000000081111561011e57600080fd5b82018360208201111561013057600080fd5b8035906020019184600183028401116401000000008311171561015257600080fd5b91908080601f016020809104026020016040519081016040528093929190818152602001838380828437600081840152601f19601f820116905080830192505050505050509192919290803590602001906401000000008111156101b557600080fd5b8201836020820111156101c757600080fd5b803590602001918460018302840111640100000000831117156101e957600080fd5b91908080601f016020809104026020016040519081016040528093929190818152602001838380828437600081840152601f19601f8201169050808301925050505050505091929192908035906020019064010000000081111561024c57600080fd5b82018360208201111561025e57600080fd5b8035906020019184600183028401116401000000008311171561028057600080fd5b91908080601f016020809104026020016040519081016040528093929190818152602001838380828437600081840152601f19601f82011690508083019250505050505050919291929080359060200190929190803590602001906401000000008111156102ed57600080fd5b8201836020820111156102ff57600080fd5b8035906020019184600183028401116401000000008311171561032157600080fd5b91908080601f016020809104026020016040519081016040528093929190818152602001838380828437600081840152601f19601f82011690508083019250505050505050919291929080359060200190929190505050610b53565b005b6103c16004803603602081101561039557600080fd5b81019080803573ffffffffffffffffffffffffffffffffffffffff169060200190929190505050610cb9565b604051808060200180602001806020018781526020018060200186815260200185810385528b818151815260200191508051906020019080838360005b838110156104195780820151818401526020810190506103fe565b50505050905090810190601f1680156104465780820380516001836020036101000a031916815260200191505b5085810384528a818151815260200191508051906020019080838360005b8381101561047f578082015181840152602081019050610464565b50505050905090810190601f1680156104ac5780820380516001836020036101000a031916815260200191505b50858103835289818151815260200191508051906020019080838360005b838110156104e55780820151818401526020810190506104ca565b50505050905090810190601f1680156105125780820380516001836020036101000a031916815260200191505b50858103825287818151815260200191508051906020019080838360005b8381101561054b578082015181840152602081019050610530565b50505050905090810190601f1680156105785780820380516001836020036101000a031916815260200191505b509a505050505050505050505060405180910390f35b610840600480360360e08110156105a457600080fd5b81019080803573ffffffffffffffffffffffffffffffffffffffff169060200190929190803590602001906401000000008111156105e157600080fd5b8201836020820111156105f357600080fd5b8035906020019184600183028401116401000000008311171561061557600080fd5b91908080601f016020809104026020016040519081016040528093929190818152602001838380828437600081840152601f19601f820116905080830192505050505050509192919290803590602001909291908035906020019064010000000081111561068257600080fd5b82018360208201111561069457600080fd5b803590602001918460018302840111640100000000831117156106b657600080fd5b91908080601f016020809104026020016040519081016040528093929190818152602001838380828437600081840152601f19601f8201169050808301925050505050505091929192908035906020019064010000000081111561071957600080fd5b82018360208201111561072b57600080fd5b8035906020019184600183028401116401000000008311171561074d57600080fd5b91908080601f016020809104026020016040519081016040528093929190818152602001838380828437600081840152601f19601f82011690508083019250505050505050919291929080359060200190929190803590602001906401000000008111156107ba57600080fd5b8201836020820111156107cc57600080fd5b803590602001918460018302840111640100000000831117156107ee57600080fd5b91908080601f016020809104026020016040519081016040528093929190818152602001838380828437600081840152601f19601f8201169050808301925050505050505091929192905050506110ef565b005b6108846004803603602081101561085857600080fd5b81019080803573ffffffffffffffffffffffffffffffffffffffff169060200190929190505050611255565b604051808060200187815260200180602001806020018681526020018060200185810385528b818151815260200191508051906020019080838360005b838110156108dc5780820151818401526020810190506108c1565b50505050905090810190601f1680156109095780820380516001836020036101000a031916815260200191505b50858103845289818151815260200191508051906020019080838360005b83811015610942578082015181840152602081019050610927565b50505050905090810190601f16801561096f5780820380516001836020036101000a031916815260200191505b50858103835288818151815260200191508051906020019080838360005b838110156109a857808201518184015260208101905061098d565b50505050905090810190601f1680156109d55780820380516001836020036101000a031916815260200191505b50858103825286818151815260200191508051906020019080838360005b83811015610a0e5780820151818401526020810190506109f3565b50505050905090810190601f168015610a3b5780820380516001836020036101000a031916815260200191505b509a505050505050505050505060405180910390f35b610a7d60048036036020811015610a6757600080fd5b810190808035906020019092919050505061168e565b604051808273ffffffffffffffffffffffffffffffffffffffff1673ffffffffffffffffffffffffffffffffffffffff16815260200191505060405180910390f35b610aeb60048036036020811015610ad557600080fd5b81019080803590602001909291905050506116ca565b604051808273ffffffffffffffffffffffffffffffffffffffff1673ffffffffffffffffffffffffffffffffffffffff16815260200191505060405180910390f35b600260009054906101000a900473ffffffffffffffffffffffffffffffffffffffff1681565b6040518060c0016040528087815260200186815260200185815260200184815260200183815260200182815250600460008973ffffffffffffffffffffffffffffffffffffffff1673ffffffffffffffffffffffffffffffffffffffff1681526020019081526020016000206000820151816000019080519060200190610bdb929190611706565b506020820151816001019080519060200190610bf8929190611706565b506040820151816002019080519060200190610c15929190611706565b50606082015181600301556080820151816004019080519060200190610c3c929190611706565b5060a0820151816005015590505060008790806001815401808255809150509060018203906000526020600020016000909192909190916101000a81548173ffffffffffffffffffffffffffffffffffffffff021916908373ffffffffffffffffffffffffffffffffffffffff1602179055505050505050505050565b60608060606000606060006060600460008973ffffffffffffffffffffffffffffffffffffffff1673ffffffffffffffffffffffffffffffffffffffff1681526020019081526020016000206000018054600181600116156101000203166002900480601f016020809104026020016040519081016040528092919081815260200182805460018160011615610100020316600290048015610d9c5780601f10610d7157610100808354040283529160200191610d9c565b820191906000526020600020905b815481529060010190602001808311610d7f57829003601f168201915b505050505090506060600460008a73ffffffffffffffffffffffffffffffffffffffff1673ffffffffffffffffffffffffffffffffffffffff1681526020019081526020016000206001018054600181600116156101000203166002900480601f016020809104026020016040519081016040528092919081815260200182805460018160011615610100020316600290048015610e7b5780601f10610e5057610100808354040283529160200191610e7b565b820191906000526020600020905b815481529060010190602001808311610e5e57829003601f168201915b505050505090506060600460008b73ffffffffffffffffffffffffffffffffffffffff1673ffffffffffffffffffffffffffffffffffffffff1681526020019081526020016000206002018054600181600116156101000203166002900480601f016020809104026020016040519081016040528092919081815260200182805460018160011615610100020316600290048015610f5a5780601f10610f2f57610100808354040283529160200191610f5a565b820191906000526020600020905b815481529060010190602001808311610f3d57829003601f168201915b505050505090506000600460008c73ffffffffffffffffffffffffffffffffffffffff1673ffffffffffffffffffffffffffffffffffffffff1681526020019081526020016000206003015490506060600460008d73ffffffffffffffffffffffffffffffffffffffff1673ffffffffffffffffffffffffffffffffffffffff1681526020019081526020016000206004018054600181600116156101000203166002900480601f0160208091040260200160405190810160405280929190818152602001828054600181600116156101000203166002900480156110805780601f1061105557610100808354040283529160200191611080565b820191906000526020600020905b81548152906001019060200180831161106357829003601f168201915b505050505090506000600460008e73ffffffffffffffffffffffffffffffffffffffff1673ffffffffffffffffffffffffffffffffffffffff1681526020019081526020016000206005015490508585858585859b509b509b509b509b509b5050505050505091939550919395565b6040518060c0016040528087815260200186815260200185815260200184815260200183815260200182815250600160008973ffffffffffffffffffffffffffffffffffffffff1673ffffffffffffffffffffffffffffffffffffffff1681526020019081526020016000206000820151816000019080519060200190611177929190611706565b5060208201518160010155604082015181600201908051906020019061119e929190611706565b5060608201518160030190805190602001906111bb929190611706565b506080820151816004015560a08201518160050190805190602001906111e2929190611706565b5090505060008790806001815401808255809150509060018203906000526020600020016000909192909190916101000a81548173ffffffffffffffffffffffffffffffffffffffff021916908373ffffffffffffffffffffffffffffffffffffffff1602179055505050505050505050565b60606000606080600060606000600160008973ffffffffffffffffffffffffffffffffffffffff1673ffffffffffffffffffffffffffffffffffffffff16815260200190815260200160002060000190506000600160008a73ffffffffffffffffffffffffffffffffffffffff1673ffffffffffffffffffffffffffffffffffffffff1681526020019081526020016000206001015490506060600160008b73ffffffffffffffffffffffffffffffffffffffff1673ffffffffffffffffffffffffffffffffffffffff1681526020019081526020016000206002018054600181600116156101000203166002900480601f0160208091040260200160405190810160405280929190818152602001828054600181600116156101000203166002900480156113c55780601f1061139a576101008083540402835291602001916113c5565b820191906000526020600020905b8154815290600101906020018083116113a857829003601f168201915b505050505090506060600160008c73ffffffffffffffffffffffffffffffffffffffff1673ffffffffffffffffffffffffffffffffffffffff1681526020019081526020016000206003018054600181600116156101000203166002900480601f0160208091040260200160405190810160405280929190818152602001828054600181600116156101000203166002900480156114a45780601f10611479576101008083540402835291602001916114a4565b820191906000526020600020905b81548152906001019060200180831161148757829003601f168201915b505050505090506000600160008d73ffffffffffffffffffffffffffffffffffffffff1673ffffffffffffffffffffffffffffffffffffffff1681526020019081526020016000206004015490506060600160008e73ffffffffffffffffffffffffffffffffffffffff1673ffffffffffffffffffffffffffffffffffffffff1681526020019081526020016000206005018054600181600116156101000203166002900480601f0160208091040260200160405190810160405280929190818152602001828054600181600116156101000203166002900480156115ca5780601f1061159f576101008083540402835291602001916115ca565b820191906000526020600020905b8154815290600101906020018083116115ad57829003601f168201915b50505050509050858585858585858054600181600116156101000203166002900480601f01602080910402602001604051908101604052809291908181526020018280546001816001161561010002031660029004801561166c5780601f106116415761010080835404028352916020019161166c565b820191906000526020600020905b81548152906001019060200180831161164f57829003601f168201915b505050505095509b509b509b509b509b509b5050505050505091939550919395565b6003818154811061169b57fe5b906000526020600020016000915054906101000a900473ffffffffffffffffffffffffffffffffffffffff1681565b600081815481106116d757fe5b906000526020600020016000915054906101000a900473ffffffffffffffffffffffffffffffffffffffff1681565b828054600181600116156101000203166002900490600052602060002090601f016020900481019282601f1061174757805160ff1916838001178555611775565b82800160010185558215611775579182015b82811115611774578251825591602001919060010190611759565b5b5090506117829190611786565b5090565b6117a891905b808211156117a457600081600090555060010161178c565b5090565b9056fea265627a7a723158202a60ce35494e00bb4939db5e85ef517d0badc77b6a0d10e03420d80d76059c4264736f6c63430005100032",
  "source": "pragma solidity >=0.4.0 <0.9.0;\r\n\r\ncontract License {\r\n    struct Company {\r\n        string nameCampany;\r\n        uint256 phoneNumber;\r\n        string email;\r\n        string catogrical;\r\n        // string gender;\r\n        uint256 LicenseNo;\r\n        string LicenseDate;\r\n    }\r\n\r\n    address[] public company;\r\n    mapping(address => Company) companies;\r\n\r\n    function addCompany(\r\n        address _address,\r\n        string memory _nameCampany,\r\n        uint256 _phoneNumber,\r\n        string memory _email,\r\n        string memory _catogrical,\r\n        // string memory _gender,\r\n        uint256 _LicenseNo,\r\n        string memory _LicenseDate\r\n    ) public {\r\n        companies[_address] = (\r\n            Company(\r\n                _nameCampany,\r\n                _phoneNumber,\r\n                _email,\r\n                _catogrical,\r\n                // _gender,\r\n                _LicenseNo,\r\n                _LicenseDate\r\n            )\r\n        );\r\n        company.push(_address);\r\n    }\r\n\r\n    function getCompanyInfos(address _address)\r\n        public\r\n        view\r\n        returns (\r\n            string memory,\r\n            uint256,\r\n            string memory,\r\n            string memory,\r\n            // string memory,\r\n            uint256,\r\n            string memory\r\n        )\r\n    {\r\n        string storage _nameCampany = companies[_address].nameCampany;\r\n        uint256 _phone = companies[_address].phoneNumber;\r\n        string memory _email = companies[_address].email;\r\n        string memory _catogrical = companies[_address].catogrical;\r\n        // string memory _gender = companies[_address].gender;\r\n        uint256 _LicenseNo = companies[_address].LicenseNo;\r\n        string memory _LicenseDate = companies[_address].LicenseDate;\r\n\r\n        return (\r\n            _nameCampany,\r\n            _phone,\r\n            _email,\r\n            _catogrical,\r\n            // _gender,\r\n            _LicenseNo,\r\n            _LicenseDate\r\n        );\r\n    }\r\n\r\n    // --------- here get alert for License to end ---------\r\n    // function isEndLicense() public {\r\n\r\n    // }\r\n\r\n    address public driverAddr;\r\n    struct Driver {\r\n        string nameDriver;\r\n        string email;\r\n        string catogrical;\r\n        uint256 DrivingLinceseNo;\r\n        string DrivingLinceseDate;\r\n        uint256 BusModel;\r\n    }\r\n\r\n    address[] public driver;\r\n    mapping(address => Driver) drivers;\r\n\r\n    function addDriver(\r\n        address _address,\r\n        string memory _nameDriver,\r\n        string memory _email,\r\n        string memory _catogrical,\r\n        uint256 _DrivingLinceseNo,\r\n        string memory _DrivingLinceseDate,\r\n        uint256 _BusModel\r\n    ) public {\r\n        drivers[_address] = (\r\n            Driver(\r\n                _nameDriver,\r\n                _email,\r\n                _catogrical,\r\n                _DrivingLinceseNo,\r\n                _DrivingLinceseDate,\r\n                _BusModel\r\n            )\r\n        );\r\n        company.push(_address);\r\n    }\r\n\r\n    function getDriverInfo(address _address)\r\n        public\r\n        view\r\n        returns (\r\n            string memory,\r\n            string memory,\r\n            string memory,\r\n            uint256,\r\n            string memory,\r\n            uint256\r\n        )\r\n    {\r\n        string memory _nameDriver = drivers[_address].nameDriver;\r\n        string memory _email = drivers[_address].email;\r\n        string memory _catogrical = drivers[_address].catogrical;\r\n        uint256 _DrivingLinceseNo = drivers[_address].DrivingLinceseNo;\r\n        string memory _DrivingLinceseDate = drivers[_address]\r\n            .DrivingLinceseDate;\r\n        uint256 _BusModel = drivers[_address].BusModel;\r\n\r\n        return (\r\n            _nameDriver,\r\n            _email,\r\n            _catogrical,\r\n            _DrivingLinceseNo,\r\n            _DrivingLinceseDate,\r\n            _BusModel\r\n        );\r\n    }\r\n}\r\n",
  "sourcePath": "C:\\Users\\esam bn\\Desktop\\drizzle-vue\\contracts\\LicenseBus.sol",
  "compiler": {
    "name": "solc",
    "version": "0.5.16+commit.9c3226ce.Emscripten.clang"
  },
  "schemaVersion": "3.4.2",
  "updatedAt": "2021-08-21T19:36:38.775Z",
  "devdoc": {
    "methods": {}
  },
  "userdoc": {
    "methods": {}
  }
}