{
  "contractName": "Price",
  "abi": [
    {
      "constant": true,
      "inputs": [],
      "name": "CostPerMile",
      "outputs": [
        {
          "internalType": "uint256",
          "name": "",
          "type": "uint256"
        }
      ],
      "payable": false,
      "stateMutability": "view",
      "type": "function"
    },
    {
      "constant": true,
      "inputs": [],
      "name": "CostPerMminute",
      "outputs": [
        {
          "internalType": "uint256",
          "name": "",
          "type": "uint256"
        }
      ],
      "payable": false,
      "stateMutability": "view",
      "type": "function"
    },
    {
      "constant": true,
      "inputs": [],
      "name": "PassengersRideFare",
      "outputs": [
        {
          "internalType": "uint256",
          "name": "",
          "type": "uint256"
        }
      ],
      "payable": false,
      "stateMutability": "view",
      "type": "function"
    },
    {
      "constant": true,
      "inputs": [],
      "name": "RideDistance",
      "outputs": [
        {
          "internalType": "uint256",
          "name": "",
          "type": "uint256"
        }
      ],
      "payable": false,
      "stateMutability": "view",
      "type": "function"
    },
    {
      "constant": true,
      "inputs": [],
      "name": "basePrice",
      "outputs": [
        {
          "internalType": "uint256",
          "name": "",
          "type": "uint256"
        }
      ],
      "payable": false,
      "stateMutability": "view",
      "type": "function"
    },
    {
      "constant": true,
      "inputs": [],
      "name": "bookingFee",
      "outputs": [
        {
          "internalType": "uint256",
          "name": "",
          "type": "uint256"
        }
      ],
      "payable": false,
      "stateMutability": "view",
      "type": "function"
    },
    {
      "constant": true,
      "inputs": [],
      "name": "surgeBoostMultiplier",
      "outputs": [
        {
          "internalType": "uint256",
          "name": "",
          "type": "uint256"
        }
      ],
      "payable": false,
      "stateMutability": "view",
      "type": "function"
    },
    {
      "constant": true,
      "inputs": [],
      "name": "timeOfTheRide",
      "outputs": [
        {
          "internalType": "uint256",
          "name": "",
          "type": "uint256"
        }
      ],
      "payable": false,
      "stateMutability": "view",
      "type": "function"
    },
    {
      "constant": false,
      "inputs": [
        {
          "internalType": "uint256",
          "name": "_basePrice",
          "type": "uint256"
        },
        {
          "internalType": "uint256",
          "name": "_CostPerMminute",
          "type": "uint256"
        },
        {
          "internalType": "uint256",
          "name": "_timeOfTheRide",
          "type": "uint256"
        },
        {
          "internalType": "uint256",
          "name": "_CostPerMile",
          "type": "uint256"
        },
        {
          "internalType": "uint256",
          "name": "_RideDistance",
          "type": "uint256"
        },
        {
          "internalType": "uint256",
          "name": "_surgeBoostMultiplier",
          "type": "uint256"
        },
        {
          "internalType": "uint256",
          "name": "_bookingFee",
          "type": "uint256"
        }
      ],
      "name": "setPrice",
      "outputs": [],
      "payable": false,
      "stateMutability": "nonpayable",
      "type": "function"
    },
    {
      "constant": true,
      "inputs": [],
      "name": "getPrice",
      "outputs": [
        {
          "internalType": "uint256",
          "name": "",
          "type": "uint256"
        }
      ],
      "payable": false,
      "stateMutability": "view",
      "type": "function"
    }
  ],
  "bytecode": "0x6080604052600060075534801561001557600080fd5b506102e5806100256000396000f3fe608060405234801561001057600080fd5b506004361061009e5760003560e01c80639315bec3116100665780639315bec31461013957806398d5fdca146101575780639b8a674b14610175578063bed72a69146101df578063c7876ea4146101fd5761009e565b806356e7c27e146100a357806362f3f3f2146100c15780636c788a0d146100df5780636c9b1aa3146100fd57806392ceb5eb1461011b575b600080fd5b6100ab61021b565b6040518082815260200191505060405180910390f35b6100c9610221565b6040518082815260200191505060405180910390f35b6100e7610227565b6040518082815260200191505060405180910390f35b61010561022d565b6040518082815260200191505060405180910390f35b610123610233565b6040518082815260200191505060405180910390f35b610141610239565b6040518082815260200191505060405180910390f35b61015f61023f565b6040518082815260200191505060405180910390f35b6101dd600480360360e081101561018b57600080fd5b8101908080359060200190929190803590602001909291908035906020019092919080359060200190929190803590602001909291908035906020019092919080359060200190929190505050610249565b005b6101e76102a4565b6040518082815260200191505060405180910390f35b6102056102aa565b6040518082815260200191505060405180910390f35b60025481565b60045481565b60065481565b60035481565b60075481565b60055481565b6000600754905090565b8660008190555085600181905550846002819055508360038190555082600481905550816005819055508060068190555060065460055460045460035402026002546001540201600054010160078190555050505050505050565b60015481565b6000548156fea265627a7a7231582029b067b078fa1ee526bdaa925cd4ed4f54475b400acc7d892289e44ccd62e02e64736f6c63430005100032",
  "source": "pragma solidity >=0.4.0 <0.9.0;\r\n\r\ncontract Price {\r\n    uint256 public basePrice;\r\n    uint256 public CostPerMminute;\r\n    uint256 public timeOfTheRide;\r\n    uint256 public CostPerMile;\r\n    uint256 public RideDistance;\r\n    uint256 public surgeBoostMultiplier;\r\n    uint256 public bookingFee;\r\n    uint256 public PassengersRideFare = 0;\r\n\r\n    function setPrice(\r\n        uint256 _basePrice,\r\n        uint256 _CostPerMminute,\r\n        uint256 _timeOfTheRide,\r\n        uint256 _CostPerMile,\r\n        uint256 _RideDistance,\r\n        uint256 _surgeBoostMultiplier,\r\n        uint256 _bookingFee\r\n    ) public {\r\n        basePrice = _basePrice;\r\n        CostPerMminute = _CostPerMminute;\r\n        timeOfTheRide = _timeOfTheRide;\r\n        CostPerMile = _CostPerMile;\r\n        RideDistance = _RideDistance;\r\n        surgeBoostMultiplier = _surgeBoostMultiplier;\r\n        bookingFee = _bookingFee;\r\n        PassengersRideFare = (basePrice +\r\n            ((CostPerMminute * timeOfTheRide) +\r\n                (CostPerMile * RideDistance) *\r\n                surgeBoostMultiplier) +\r\n            bookingFee);\r\n    }\r\n\r\n    function getPrice() public view returns (uint256) {\r\n        return (PassengersRideFare);\r\n    }\r\n}\r\n",
  "sourcePath": "C:\\Users\\esam bn\\Desktop\\drizzle-vue\\contracts\\PriceCalclate.sol",
  "compiler": {
    "name": "solc",
    "version": "0.5.16+commit.9c3226ce.Emscripten.clang"
  },
  "schemaVersion": "3.4.2",
  "updatedAt": "2021-08-21T19:36:38.794Z",
  "devdoc": {
    "methods": {}
  },
  "userdoc": {
    "methods": {}
  }
}